{
  "_format": "hh-sol-artifact-1",
  "contractName": "GyidiGTFOL",
  "sourceName": "contracts/GyidiGTFOL.sol",
  "abi": [
    {
      "inputs": [],
      "stateMutability": "nonpayable",
      "type": "constructor"
    },
    {
      "anonymous": false,
      "inputs": [
        {
          "indexed": false,
          "internalType": "address",
          "name": "to",
          "type": "address"
        },
        {
          "indexed": false,
          "internalType": "uint256",
          "name": "timestamp",
          "type": "uint256"
        },
        {
          "indexed": false,
          "internalType": "uint256",
          "name": "amount",
          "type": "uint256"
        }
      ],
      "name": "FundsWithdrawn",
      "type": "event"
    },
    {
      "anonymous": false,
      "inputs": [
        {
          "indexed": false,
          "internalType": "address",
          "name": "from",
          "type": "address"
        },
        {
          "indexed": false,
          "internalType": "uint256",
          "name": "timestamp",
          "type": "uint256"
        },
        {
          "indexed": false,
          "internalType": "uint256",
          "name": "amount",
          "type": "uint256"
        },
        {
          "indexed": false,
          "internalType": "string",
          "name": "name",
          "type": "string"
        },
        {
          "indexed": false,
          "internalType": "string",
          "name": "message",
          "type": "string"
        }
      ],
      "name": "NewDonation",
      "type": "event"
    },
    {
      "inputs": [
        {
          "internalType": "string",
          "name": "_name",
          "type": "string"
        },
        {
          "internalType": "string",
          "name": "_message",
          "type": "string"
        }
      ],
      "name": "donate",
      "outputs": [],
      "stateMutability": "payable",
      "type": "function"
    },
    {
      "inputs": [],
      "name": "getTotalBalance",
      "outputs": [
        {
          "internalType": "uint256",
          "name": "",
          "type": "uint256"
        }
      ],
      "stateMutability": "view",
      "type": "function"
    },
    {
      "inputs": [],
      "name": "viewDonation",
      "outputs": [
        {
          "internalType": "address",
          "name": "_from",
          "type": "address"
        },
        {
          "internalType": "uint256",
          "name": "_timestamp",
          "type": "uint256"
        },
        {
          "internalType": "uint256",
          "name": "_amount",
          "type": "uint256"
        },
        {
          "internalType": "string",
          "name": "_name",
          "type": "string"
        },
        {
          "internalType": "string",
          "name": "_message",
          "type": "string"
        }
      ],
      "stateMutability": "view",
      "type": "function"
    },
    {
      "inputs": [],
      "name": "withdraw",
      "outputs": [],
      "stateMutability": "nonpayable",
      "type": "function"
    }
  ],
  "bytecode": "0x608060405234801561001057600080fd5b5033600160006101000a81548173ffffffffffffffffffffffffffffffffffffffff021916908373ffffffffffffffffffffffffffffffffffffffff160217905550610fcb806100616000396000f3fe60806040526004361061003f5760003560e01c806312b58349146100445780631653441c1461006f5780633ccfd60b1461008b5780636e928d72146100a2575b600080fd5b34801561005057600080fd5b506100596100d1565b6040516100669190610be4565b60405180910390f35b6100896004803603810190610084919061092b565b6100d9565b005b34801561009757600080fd5b506100a061033d565b005b3480156100ae57600080fd5b506100b76104d8565b6040516100c8959493929190610ae3565b60405180910390f35b600047905090565b6000341161011c576040517f08c379a000000000000000000000000000000000000000000000000000000000815260040161011390610b44565b60405180910390fd5b600160009054906101000a900473ffffffffffffffffffffffffffffffffffffffff1673ffffffffffffffffffffffffffffffffffffffff163373ffffffffffffffffffffffffffffffffffffffff1614156101ad576040517f08c379a00000000000000000000000000000000000000000000000000000000081526004016101a490610b64565b60405180910390fd5b6101b56107db565b33816000019073ffffffffffffffffffffffffffffffffffffffff16908173ffffffffffffffffffffffffffffffffffffffff16815250504281602001818152505034816040018181516102099190610c71565b91508181525050828160600181905250818160800181905250806000803373ffffffffffffffffffffffffffffffffffffffff1673ffffffffffffffffffffffffffffffffffffffff16815260200190815260200160002060008201518160000160006101000a81548173ffffffffffffffffffffffffffffffffffffffff021916908373ffffffffffffffffffffffffffffffffffffffff160217905550602082015181600101556040820151816002015560608201518160030190805190602001906102d8929190610820565b5060808201518160040190805190602001906102f5929190610820565b509050507fc80af9d323d6e3f9f7342e72b22502994ace01b8735ac13a8051afeeec2a5f933342348686604051610330959493929190610ae3565b60405180910390a1505050565b600160009054906101000a900473ffffffffffffffffffffffffffffffffffffffff1673ffffffffffffffffffffffffffffffffffffffff163373ffffffffffffffffffffffffffffffffffffffff16146103cd576040517f08c379a00000000000000000000000000000000000000000000000000000000081526004016103c490610ba4565b60405180910390fd5b60004711610410576040517f08c379a000000000000000000000000000000000000000000000000000000000815260040161040790610bc4565b60405180910390fd5b600160009054906101000a900473ffffffffffffffffffffffffffffffffffffffff1673ffffffffffffffffffffffffffffffffffffffff166108fc479081150290604051600060405180830381858888f19350505050158015610478573d6000803e3d6000fd5b507ffbc3a599b784fe88772fc5abcc07223f64ca0b13acc341f4fb1e46bef0510eb4600160009054906101000a900473ffffffffffffffffffffffffffffffffffffffff1642476040516104ce93929190610aac565b60405180910390a1565b6000806000606080600073ffffffffffffffffffffffffffffffffffffffff163373ffffffffffffffffffffffffffffffffffffffff161415610550576040517f08c379a000000000000000000000000000000000000000000000000000000000815260040161054790610b84565b60405180910390fd5b6000803373ffffffffffffffffffffffffffffffffffffffff1673ffffffffffffffffffffffffffffffffffffffff16815260200190815260200160002060000160009054906101000a900473ffffffffffffffffffffffffffffffffffffffff1694506000803373ffffffffffffffffffffffffffffffffffffffff1673ffffffffffffffffffffffffffffffffffffffff1681526020019081526020016000206001015493506000803373ffffffffffffffffffffffffffffffffffffffff1673ffffffffffffffffffffffffffffffffffffffff1681526020019081526020016000206002015492506000803373ffffffffffffffffffffffffffffffffffffffff1673ffffffffffffffffffffffffffffffffffffffff168152602001908152602001600020600301805461068890610d7b565b80601f01602080910402602001604051908101604052809291908181526020018280546106b490610d7b565b80156107015780601f106106d657610100808354040283529160200191610701565b820191906000526020600020905b8154815290600101906020018083116106e457829003601f168201915b505050505091506000803373ffffffffffffffffffffffffffffffffffffffff1673ffffffffffffffffffffffffffffffffffffffff168152602001908152602001600020600401805461075490610d7b565b80601f016020809104026020016040519081016040528092919081815260200182805461078090610d7b565b80156107cd5780601f106107a2576101008083540402835291602001916107cd565b820191906000526020600020905b8154815290600101906020018083116107b057829003601f168201915b505050505090509091929394565b6040518060a00160405280600073ffffffffffffffffffffffffffffffffffffffff168152602001600081526020016000815260200160608152602001606081525090565b82805461082c90610d7b565b90600052602060002090601f01602090048101928261084e5760008555610895565b82601f1061086757805160ff1916838001178555610895565b82800160010185558215610895579182015b82811115610894578251825591602001919060010190610879565b5b5090506108a291906108a6565b5090565b5b808211156108bf5760008160009055506001016108a7565b5090565b60006108d66108d184610c24565b610bff565b9050828152602081018484840111156108ee57600080fd5b6108f9848285610d39565b509392505050565b600082601f83011261091257600080fd5b81356109228482602086016108c3565b91505092915050565b6000806040838503121561093e57600080fd5b600083013567ffffffffffffffff81111561095857600080fd5b61096485828601610901565b925050602083013567ffffffffffffffff81111561098157600080fd5b61098d85828601610901565b9150509250929050565b6109a081610d03565b82525050565b6109af81610cc7565b82525050565b60006109c082610c55565b6109ca8185610c60565b93506109da818560208601610d48565b6109e381610e6b565b840191505092915050565b60006109fb601883610c60565b9150610a0682610e7c565b602082019050919050565b6000610a1e602a83610c60565b9150610a2982610ea5565b604082019050919050565b6000610a41601783610c60565b9150610a4c82610ef4565b602082019050919050565b6000610a64602f83610c60565b9150610a6f82610f1d565b604082019050919050565b6000610a87601e83610c60565b9150610a9282610f6c565b602082019050919050565b610aa681610cf9565b82525050565b6000606082019050610ac16000830186610997565b610ace6020830185610a9d565b610adb6040830184610a9d565b949350505050565b600060a082019050610af860008301886109a6565b610b056020830187610a9d565b610b126040830186610a9d565b8181036060830152610b2481856109b5565b90508181036080830152610b3881846109b5565b90509695505050505050565b60006020820190508181036000830152610b5d816109ee565b9050919050565b60006020820190508181036000830152610b7d81610a11565b9050919050565b60006020820190508181036000830152610b9d81610a34565b9050919050565b60006020820190508181036000830152610bbd81610a57565b9050919050565b60006020820190508181036000830152610bdd81610a7a565b9050919050565b6000602082019050610bf96000830184610a9d565b92915050565b6000610c09610c1a565b9050610c158282610dad565b919050565b6000604051905090565b600067ffffffffffffffff821115610c3f57610c3e610e3c565b5b610c4882610e6b565b9050602081019050919050565b600081519050919050565b600082825260208201905092915050565b6000610c7c82610cf9565b9150610c8783610cf9565b9250827fffffffffffffffffffffffffffffffffffffffffffffffffffffffffffffffff03821115610cbc57610cbb610dde565b5b828201905092915050565b6000610cd282610cd9565b9050919050565b600073ffffffffffffffffffffffffffffffffffffffff82169050919050565b6000819050919050565b6000610d0e82610d15565b9050919050565b6000610d2082610d27565b9050919050565b6000610d3282610cd9565b9050919050565b82818337600083830152505050565b60005b83811015610d66578082015181840152602081019050610d4b565b83811115610d75576000848401525b50505050565b60006002820490506001821680610d9357607f821691505b60208210811415610da757610da6610e0d565b5b50919050565b610db682610e6b565b810181811067ffffffffffffffff82111715610dd557610dd4610e3c565b5b80604052505050565b7f4e487b7100000000000000000000000000000000000000000000000000000000600052601160045260246000fd5b7f4e487b7100000000000000000000000000000000000000000000000000000000600052602260045260246000fd5b7f4e487b7100000000000000000000000000000000000000000000000000000000600052604160045260246000fd5b6000601f19601f8301169050919050565b7f63616e277420646f6e6174652077697468206e6f206574680000000000000000600082015250565b7f43726561746f72206f662070726f6a6563742063616e6e6f7420636f6e74726960008201527f6275746520746f20697400000000000000000000000000000000000000000000602082015250565b7f416464726573732063616e6e6f7420626520656d707479000000000000000000600082015250565b7f4f6e6c79207468652070726f6a6563742063726561746f722063616e2063616c60008201527f6c20746869732066756e6374696f6e0000000000000000000000000000000000602082015250565b7f42616c616e6365206d7573742062652067726561746572207468616e2030000060008201525056fea264697066735822122081417405d32b1828ce3877ab82250b3fbb2d6bff012df46511ffd4b8b475d89a64736f6c63430008040033",
  "linkReferences": {},
  "deployedLinkReferences": {}
}